:020000020000FC
:200000000040023408408C140800683A0000000000000000000000000000000000000000D8
:20000800DEFFED04DFC00015D8400215D8800315D8C00415D9000515D9400615D98007156A
:20001000D9C00815000B307ADA000915DA400A15DA800B15DAC00C15DB000D15DB400E15C4
:20001800DB800F15DBC01015D9401115EBFFFF04DBC012150009313A2880004C10000326FA
:200020002000022600800FC000000706DF401215E8BFFF17E93FFF0400801D001000021E21
:20002800EBFFFF04DBC01215D9401117DF401217DFC000172801707AD8400217D880031714
:20003000D8C00417D9000517D9400617D9800717D9C00817DA000917DA400A17DA800B17F2
:20003800DAC00C17DB000D17DB400E17DB800F17DBC01017DEC01304EF80083ADEFFF90429
:20004000DFC00615DF000515DF0005040001883A0005313AE0BFFE15E0BFFE17E0BFFB15BD
:20004800E03FFD1500800044E0BFFC15E0FFFB17E0BFFC171884703A1000142600800274CA
:2000500010946F04E0FFFD17180690FA10C5883A10C000170080027410946F04E13FFD171F
:20005800200890FA1105883A10800104108000171009883A183EE83A0001883A0005313A3C
:20006000E0BFFF15E0BFFF1700000706E0BFFC171085883AE0BFFC15E0BFFD1710800044CB
:20006800E0BFFD15003FE106E0BFFB15E0BFFB17103FDB1E0001883A0001883AE037883A9A
:20007000DFC00117DF000017DEC00204F800283ADEFFFB04DFC00415DF000315DF00030454
:20007800E13FFF1500BFFFC4E0BFFD15E03FFE15D0A6DC1710000726D0A6DC17E0FFFD17CD
:20008000E1BFFE17E17FFF171809883A103EE83A00000206003DA03A0005883AE037883A23
:20008800DFC00117DF000017DEC00204F800283A06C003B4DED0001406800274D6AD881453
:20009000008002741094531400C0027418D4AF1410C00326100000151080010410FFFD3675
:20009800008F52C0008F6C80003FFF06DEFFFC04DFC00315DF000215DC000115DF00020487
:2000A000E13FFE1504000044000B883AE13FFE17008116801000010E0021883A80803FCC9F
:2000A800E6FFFF04DFC00217DF000117DC000017DEC00304F800283ADEFFF004DFC00F151B
:2000B000DF000E15DCC00D15DC800C15DC400B15DC000A15DF000E04E13FF815E17FF91530
:2000B800E1BFFA15E1FFFB15E03FF2150000B106E03FF3150000A906E0BFF817108002177F
:2000C000E0BFF415E03FF51500001B06E0BFF317100490FAE0FFF9171887883AE0BFF517EC
:2000C8001085883A1085883A1885883A11000017E0FFF817E0BFF5171085883A1085883A9C
:2000D0001885883A10C00017180B883A008122401007883A1805883A100B883AE13FF41742
:2000D800008086001007883AE0FFF415E0BFF51710800044E0BFF515E0BFF517108000904E
:2000E000103FE21EE13FF417008026C0E0BFF715E03FF61500004E06E0FFF817E0BFF6175D
:2000E8001085883A1085883A1885883A10C000171809883A0082E5001021883A1823883ACA
:2000F000E0BFF3171085883A1085883A1007883AE0BFFA1710C5883A10C00017E0BFF717E5
:2000F8001885C83A1009883A0082D7401011883A1813883A01A666B431A6668401CFEEB411
:2001000039E666444009883A480B883A008250801009883A180B883A2025883A2827883ACC
:20010800E0BFF317100490FAE0FFF9171887883AE0BFF6171085883A1085883A1885883A87
:2001100010C000171809883A0082E5001009883A180B883A200D883A280F883A9009883A9B
:20011800980B883A008250801009883A180B883A2005883A2807883A100D883A180F883AB0
:200120008009883A880B883A0081C5C01009883A180B883A2005883A2807883A1009883AA6
:20012800180B883A0082F6001009883AE0FFF817E0BFF6171085883A1085883A1885883AD8
:2001300011000015E0BFF61710800044E0BFF615E0BFF61710800090103FAF1EE0BFF817C9
:2001380010C002171809883A0082E5001021883A1823883AE0BFF3171085883A1085883A2D
:200140001007883AE0BFFA1710C5883A10C00017E0BFF7171885C83A1009883A0082D740D8
:200148001011883A1813883A01A666B431A6668401CFEEB439E666444009883A480B883AEA
:20015000008250801009883A180B883A2005883A2807883A100D883A180F883A8009883A92
:20015800880B883A0081C5C01009883A180B883A2005883A2807883A1009883A180B883AD4
:200160000082F6001007883AE0BFF81710C00215E0BFF31710800044E0BFF315E0FFF3178C
:20016800E0BFFB1718BF5416E0BFF21710800044E0BFF215E0BFF217108003D0103F4C1E9F
:200170000001883AE6FFFC04DFC00517DF000417DCC00317DC800217DC400117DC000017C0
:20017800DEC00604F800283ADEFFFA04DFC00515DF000415DF000404E13FFE15E17FFF154B
:20018000E0BFFE1710800217E0BFFC15E03FFD1500001906E0BFFD171085883A1085883AA1
:200188001007883AE0BFFF1710C5883A11000017E0FFFE17E0BFFD171085883A1085883AB5
:200190001885883A10C00017180B883A008122401007883A1805883A100B883AE13FFC1779
:20019800008086001007883AE0FFFC15E0BFFD1710800044E0BFFD15E0BFFD17108000906D
:2001A000103FE41EE13FFC17008026C0E037883ADFC00117DF000017DEC00204F800283AD1
:2001A800DEFFDC04DFC02315DF002215DF0022040009883A00833C401009883A00833480AC
:2001B0000080027410861004E0FFE0041009883A00801204100D883A200B883A1809883AAC
:2001B8000083194000800044E0BFF215E03FF31500800044E0BFF415E03FF515E03FF615FB
:2001C00000800044E0BFF715E03FF815E03FF91500800044E0BFFA150090C834E0BFFB15AA
:2001C80000909C34E0BFFC15E03FDE1500001D06008336001009883A0081B3801007883AB1
:2001D0000153C0341809883A0080D2801007883A1805883A100B883A1009883A008086009C
:2001D8001007883A1805883A014FE0341009883A008165401009883A2007883AE0BFDE1792
:2001E0001085883A1085883AE13FDE042085883A10801F0410C00015E0BFDE1710800044E8
:2001E800E0BFDE15E0BFDE1710800090103FE01E008336001009883A0081B3801007883A43
:2001F0000153C0341809883A0080D2801007883A1805883A100B883A1009883A008086007C
:2001F8001007883A1805883A014FE0341009883A008165401007883A1805883AE0BFFF155F
:20020000E13FF204E0FFE004E0BFFD0401C00244200D883A180B883A1009883A00802B8084
:20020800E0FFFB04E0BFFD04180B883A1009883A00805E80E0BFDF15E17FDF1701000274DA
:2002100021060F04008330C00005883AE037883ADFC00117DF000017DEC00204F800283AD6
:20021800DEFFFC042004D7FA280CD5FADC00001500C020342020D5FA280ED7FA18FFFFC4FC
:20022000DC4001151908703A194A703ADFC00315DC80021514403FCC84003FCC200890FAEA
:2002280031803FCC280A90FA89C050268185C83A00807A0E30001E1E28006D1E208001CCE3
:2002300010000426208003CC00C0010410C0012620C9883A2081002C10003926840000449A
:2002380000803FC480807826200891BA8805883A2008D27A84003FCC800695FA10803FCC10
:2002400004002034843FFFC4100497FA2408703A20E0B03A8084B03ADFC00317DC8002173F
:20024800DC400117DC000017DEC00404F800283A00C03FC480FFE1262941003400C006C4FE
:200250001880751600C008041887C83A28C6983A288AD83A1804C03A288AB03A2149C83A5C
:200258002081002C100014260481003494BFFFC424A4703A9009883A0083108010BFFEC42F
:2002600090A4983A140054161405C83A11000044008008041105C83A9084983A9124D83A39
:200268000021883A1008C03A9108B03A003FC3061000DB261009883A208001CC103FC11E6F
:200270002006D0FA01003FC48805883A8100241E18006E261900103400C0203418FFFFC471
:20027800043FFFC420C8703A003FC2068187C83A00C03E0E3000232601803FC481BFAF269F
:2002800029410034018006C430C074160180080430CDC83A298C983A28CAD83A3006C03AB4
:2002880028CAB03A2149883A20C1002C183FE2268400004400C03FC480C0542600BF0034AA
:2002900010BFFFC420C0004C2088703A2008D07A20C8B03A003F99060007883A0005883A8C
:2002980001002034213FFFC41908703A003FA10610BFFFC4103FB92600C03FC480FFAF1E4E
:2002A000003F8E06283F8D2618FFFFC4183FE52601803FC481BFDB1E003F88061000201E3D
:2002A8008080004410803FCC018000443080450E2165C83A90C1002C18002B262925C83AD1
:2002B0003823883A003FAB068805883A043FFFC40009883A003F8706013F0034213FFFC49E
:2002B80080A1C83A9108703A003F74061800411E80C0004419C03FCC0180004431C0260E3E
:2002C00001803FC4198021262149883A2008D07A1821883A003F690601400044003F8F061A
:2002C8008000151E20002F260084303A10000A2600C03FC430C02B2600C006C418806D1617
:2002D00000C008041887C83A20C6983A2084D83A1808C03A1108B03A2909C83A3021883ACF
:2002D8003823883A003F7E06903F821E0005883A0021883A003FBA0600C03FC430C019261C
:2002E0000085C83A21010034003FEB06043FFFC40009883A003F570680004A1E20005926FD
:2002E800283F46262149883A2081002C103F822600BF003410BFFFC43021883A2088703A49
:2002F000003F3E068000121E2000261E283FA2262809883A3823883A003F38060140004416
:2002F800003F90062809883A3021883A3823883A003F320680000C1E20002F2600C6303A28
:2003000018002B1E2149883A3021883A003F860620001B1E280039262809883A3823883A82
:2003080004003FC4003F250601C03FC431C0222600C7C83A2101003401C006C438C0361679
:2003100001C0080438CFC83A21CE983A20C6D83A3808C03A1906B03A1949883A3021883AC4
:20031800003F7106283F15262145C83A10C1002C183F4F262909C83A3823883A003F0F0697
:2003200028001A262008D0FA2080102C10000526280AD0FA2880102C1000021E2809883A49
:200328003823883A200890FA04003FC4003F030601C03FC431FFE01E2809883A3021883A9F
:20033000003EFE0620001126280008262008D0FA2080102C103FF326280AD0FA2880102CA8
:20033800103FF01E2809883A003FEE0604003FC4003EF20601000044003F97060005883AFD
:20034000003F34062809883A003EEC062809883A04003FC4003EE90600C00044003FCE06C3
:200348000005883A003F4E06DEFFF504200CD5FADCC004152026D7FA00C02034DD80071511
:20035000DD000515DC80031518FFFFC4DFC00A15DF000915DDC00815DD400615DC40021568
:20035800DC00011535003FCC1924703A9D803FCCA000522600803FC4A0802E269100203450
:20036000202490FAA53FE0440021883A002F883A280CD5FA282AD7FA00C0203418FFFFC4BF
:2003680031803FCC1962703AAF003FCC30004A2600803FC43080452689402034282290FAAB
:2003700031BFE044000B883A2C20B03A802090BA0080023410837D0480A1883A8100001727
:200378009D46F03A180F883A18803FCCA18DC83A2000683A00080FD800080E5C00080FCC96
:2003800000080E4800080FCC00080FA400080FCC00080E4800080E5C00080E5C00080FA481
:2003880000080E48000810B8000810B8000810B80008106C9000581E0400020405C00084AA
:20039000003FD3060023883AE02D883A282F883A00800084B8808F1EB005883A11C0004CEB
:20039800013FFFC4000D883A21003FCC200895FA38803FCC00C02034100497FA18FFFFC43A
:2003A00030C6703A1906B03A1884B03ADFC00A17DF000917DDC00817DD800717DD400617DE
:2003A800DD000517DCC00417DC800317DC400217DC000117DEC00B04F800283A90002B1E06
:2003B0000400010405C00044003FB1068800251E014000840000020688001A1E0140004448
:2003B8008160B03A802090BA00C0023418C3C10480E1883A80C000179D44F03AA18DC83A25
:2003C0001800683A00080E5C00080E5C000810A800080E44000810A800080FA4000810A82A
:2003C80000080E4400080E5C00080E5C00080FA400080E44000810B8000810B8000810B852
:2003D000000810D08809883A0083108010FFFEC410801D8488E2983A008DC83A000B883A25
:2003D800003F9906014000C4003F97069009883AD94000150083108010FFFEC411801D84A7
:2003E00090E4983A01A9C83A0021883A002F883AD9400017003F7E060400030405C000C4B0
:2003E800003F7B0601802034000F883A31BFFFC4013FFFC4003FAC06014000442909C83A2F
:2003F00000C006C419004B0E114E703A0009883A000D883A003FA4069006917A8822917A0F
:2003F8001C40372E31BFFFC4010006C4000B883A180F883A294B883A18C7883A38000116CA
:200400001C4002361C47C83A29400054213FFFC4203FF71E1806C03A1962B03A31001FC4FE
:20040800013FE50E88C001CC1800042688C003CC01400104194001268963883A88C2002C49
:200410001800042600FE003418FFFFC43100200488E2703A00C03F84193F8016880C91BAC5
:2004180011C0004C300CD27A003F7F069080102C100002268880102C100018260080203471
:200420009180103410BFFFC4980F883A308C703A003FC706008000C4B8802D2600C0004427
:20042800B005883AB8FFDD1E11C0004C0009883A000D883A003F6C069023883A003F640605
:200430001C47C83A0100068401400044003FC8069080102C103FE9260023883A00802034C7
:200438008980103410BFFFC4A80F883A308C703A003FAF0601C00804390FC83A89CE983AB2
:20044000890AD83A380EC03A29CAB03A28C001CC1800042628C003CC0100010419000126E6
:20044800290B883A28C1002C1800042611C0004C01000044000D883A003F4B06280A91BA09
:2004500011C0004C0009883A280CD27A003F4606008020348980103410BFFFC4B00F883A65
:20045800308C703A003F92062004D5FA2806D5FA0180203431BFFFC410803FCC01C03FC470
:200460003110703A18C03FCC314C703A2008D7FA280AD7FA11C0192601C03FC419C00F26A9
:200468001000061E400F003A1800071E3000061E0005883A40000E1EF800283A18000A1E59
:2004700030000B26000F883A29403FCC380007262800082600800044F800283A303FF02668
:2004780000BFFF84F800283A29403FCC21400526203FF82600BFFFC4F800283A403FE626E4
:20048000003FF70618BFFA1610C00216323FF8364180022E203FEF1E003FF6060005883A53
:20048800F800283ADEFFF504DC0001152020D5FADD400615202AD7FADC8003150480203484
:20049000DF000915DD00051594BFFFC4DFC00A15DDC00815DD800715DCC00415DC40021569
:2004980084003FCC9124703AA829883AAF003FCC8000542600803FC480802F269100203452
:2004A000202490FA843FE0440023883A002F883A2804D5FA282CD7FA01002034213FFFC419
:2004A80010803FCC2166703AB1803FCC10004C2600C03FC410C0472699002034202690FAED
:2004B00010BFE0440007883A80A1883A010003C41C44B03AB56AF03A81C0004420806B366C
:2004B800100490BA010002342104BE041105883A108000171000683A0008148C0008134C68
:2004C0000008134C0008134800081470000814700008145C00081348000814700008145C5B
:2004C80000081470000813480008147C0008147C0008147C0008158C90003B1E0440020481
:2004D00005C00084003FD206302B883A0080008418802626008000C41880B8260080004429
:2004D8001880AF1EA829883A0007883A0009883A18803FCC100695FAA0803FCC100A97FA5A
:2004E0000080203410BFFFC42084703A10C4B03A1144B03ADFC00A17DF000917DDC00817D0
:2004E800DD800717DD400617DD000517DCC00417DC800317DC400217DC000117DEC00B0443
:2004F000F800283A90000D1E0440010405C00044003FAF069806C03A18C00084003FBA069E
:2004F8009800141E00C00044003FB706A829883A00FFFFC40009883A003FDD069009883A7D
:20050000D94000150083108010FFFEC410801D8490E4983A00A1C83A0023883A002F883AD9
:20050800D9400017003F9A060440030405C000C4003F97069809883AD98000150083108030
:2005100010FFFEC410801D8498E6983A0085C83A0007883AD9800017003F9B060100203484
:200518000029883A213FFFC400FFFFC4003FC0069027883AB807883A003FB4069027883A82
:20052000E02B883AB807883A003FB0069028D43A982CD43A94BFFFCC9CFFFFCC980B883AF7
:200528009009883AD9C00015008316C0A00B883A9809883A1023883A008316C0A009883AC8
:20053000B00B883A1027883A008316C0B00B883A9009883A1029883A008316C08806D43A14
:2005380014C5883AD9C000171885883A14C0022E00C00074A0E9883A1026943A8C7FFFCC9C
:200540001004D43A9C63883A882691BA1505883A8822D6BA100891BA9826C03A9C62B03AA6
:200548008926B03A9882002C100004269804D07A9900004C3821883A1126B03A80C01FC450
:2005500000C0210E988001CC10000426988003CC01000104110001269927883A9882002C90
:200558001000042600BE003410BFFFC480C0200498A6703A00803F8410FF9C16980891BA8A
:20056000A829883A2008D27A003F79069080102C100008269880102C1000061E00802034D0
:200568009900103410BFFFC4B029883A2088703A003FAD06008020349100103410BFFFC4EA
:200570002088703A003FA8060080004410C7C83A008006C410FF63160080080410C5C83A5A
:200578009884983A98C6D83A1004C03A1884B03A10C001CC1800042610C003CC01000104ED
:20058000190001261105883A10C1002C18000626A829883A00C000440009883A003F540607
:200588003821883A003FC506100491BAA829883A0007883A1008D27A003F4D0600802034A9
:200590009900103410BFFFC4A829883A2088703A003F8506DEFFFC04280CD5FADC0000155C
:2005980001C020342020D5FA39FFFFC43906703ADC400115394E703A2022D7FADFC003150E
:2005A000DC80021531803FCC01003FC484003FCC180690FA2804D7FA380E90FA31006D2640
:2005A8001080005C8189C83A14404F260100770E30001E1E38006A1E188001CC1000042621
:2005B000188003CC01000104110001261907883A1881002C100039268400004400803FC425
:2005B80080807526180691BA8880004C180AD27A84003FCC800695FA10803FCC01002034C9
:2005C000213FFFC4100497FA2920703A80E0B03A8084B03ADFC00317DC800217DC400117C6
:2005C800DC000017DEC00404F800283A00803FC480BFE12639C10034008006C41100741644
:2005D000008008041105C83A3884983A390ED83A1008C03A390EB03A19C7C83A1881002C96
:2005D800100014260481003494BFFFC41CA4703A9009883A0083108010BFFEC490A4983A7B
:2005E000140051161405C83A10C000440080080410C5C83A9084983A90E4D83A0021883A9F
:2005E8001006C03A90C6B03A003FC3062000E0262007883A188001CC103FC11E180AD0FA0D
:2005F00000C03FC48880004C80C0031E28006D2629401034043FFFC400C0203418FFFFC417
:2005F80028CA703A003FC20601003C0E3000212601403FC4817FB02639C10034014006C42B
:200600002900741601400804290BC83A394A983A390ED83A2808C03A390EB03A19C7883AF9
:200608001901002C200038268400004401003FC4810054261023883A00BF003410BFFFC4CD
:200610001900004C1886703A1806D07A1906B03A003F9906383F922610803FCC003F91062E
:20061800213FFFC4203FBC2600803FC480BFB21E003F9106383F9026213FFFC4203FE7263A
:2006200001403FC4817FDD1E003F8B062000221E8100004421003FCC014000442900470E57
:2006280019E5C83A9141002C28002D2638E5C83A1023883A003FAE068880004C043FFFC4D8
:20063000000B883A003F8A0600FF003418FFFFC480A1C83A90C6703A003F77062000431EA1
:200638008100004421803FCC014000442980280E01403FC42140232619C7883A1806D07AD5
:200640002021883A003F6C061023883A003FA90601C00044003F90068000151E18002F2609
:200648000108303A20000A2601403FC431402B26014006C429006E1601400804290BC83A8E
:20065000194A983A1908D83A2806C03A20C6B03A38C7C83A3021883A1023883A003F7F065D
:20065800903F831E0005883A0021883A003F9A0601403FC4314019260109C83A18C100347C
:20066000003FEB06043FFFC4000B883A003F58068000481E18006226383F472619C7883ACE
:200668001881002C103F832600BF003410BFFFC42821883A1886703A003F3F0680001C1E9F
:200670001800261E38004C263807883A1023883A003F390601C00044003F90063807883A15
:200678003021883A1023883A003F33068000161E18002D260108303A20000A2601403FC4BC
:2006800031402926014006C42900471601400804290BC83A194A983A1908D83A2806C03AF6
:2006880020C6B03A19C7883A3021883A003F7C061800111E380033263807883A1023883A3E
:2006900004003FC4003F1C0601403FC4314016260109C83A18C10034003FEA06383F1626F6
:2006980019C9C83A2141002C283F502638C7C83A1023883A003F100638001B261806D0FA47
:2006A0001900102C20000526380ED0FA3900102C2000021E3807883A1023883A180690FA37
:2006A80004003FC4003F04063807883A3021883A003F01061800172638000B261806D0FAE2
:2006B0001900102C20000426380ED0FA3900102C2000011E3807883A180690FA1023883A29
:2006B80004003FC4003EF40604003FC4003EF20600C00044003F9606000B883A0005883A33
:2006C000003F350601402034297FFFC40005883A003F2F063807883A04003FC4003EE60633
:2006C8003807883A003EE40600C00044003FBD060005883A003F2806DEFFFD04DFC002151B
:2006D000DC400115DC000015200035262021883A2022D7FA200036168009883A008310808C
:2006D80000C027841887C83A0100258420C0141620C9C83A8120983A0080203410BFFFC47E
:2006E0008809883A80A0703A18803FCC100695FA20803FCC100897FA0080203410BFFFC4DB
:2006E8008084703A10C4B03A1104B03ADFC00217DC400117DC000017DEC00304F800283AA9
:2006F0000100264420C01C1620C9C83A8120983A013F0034213FFFC4814001CC8108703AB7
:2006F80028000426840003CC01400104814001262149883A2141002C2800052600C027C457
:200700001887C83A00BF003410BFFFC42088703A202091BA8809883A8020D27A003FDA0678
:200708000009883A0007883A0021883A003FD6060121C83A003FC80601002E4420C9C83AB0
:20071000014001448108983A288BC83A8160D83A2008C03A8120B03A003FDD0602C0043477
:200718005AFFFFC42806D7FA2AD4703A3AD2703A3804D53A3018D77A280AD53A501490FA35
:200720002010D77A481290FA380ED7FADEFFFB04DC800215DC400115DC000015DFC0041513
:20072800DCC003151C803FCC2C01FFCC5210B03A202290FA1081FFCC4B12B03A300C90FADD
:2007300091C075268087C83A00C0AB0E10002A1E4984B03A1000961E888001CC1000072656
:20073800888003CC00C0010410C0042688C7883A1C63803A4451883A1823883A4080202C61
:2007400010005926840000440081FFC48080BA2600BFE03410BFFFC44090703A4004977AEA
:200748004010927A8822D0FA8401FFCC4010D33A9007883A1444B03A8401FFCC8020953ABA
:2007500018C03FCC01000434213FFFC4180697FA4110703A4410B03A40C6B03ADFC00417B8
:20075800DCC00317DC800217DC400117DC000017DEC00504F800283A0081FFC480BFD626AF
:200760004A40203400800E0410C09F16008007C410C0C2160080080410C5C83A488A983A8A
:2007680030C8D83A3084983A48C6D83A290CB03A1004C03A308CB03A898DC83A89A3803AF0
:2007700040D1C83A4451C83A3023883A4080202C1000232604C020349CFFFFC444E6703AFB
:20077800980076269809883A0083108010FFFE04010007C420C077160080080410C5C83A0A
:200780008884D83A98D0983A88E2983A1204B03A1C0074161C21C83A8200004400C007C48F
:200788001A00911600C008041A07C83A8A08D83A88E2983A10C6983A1210D83A8804C03A5F
:200790001906B03A18A2B03A0021883A003FA2061890B03A40017D261011883A1823883A7C
:20079800888001CC103F9E1E4004977A8822D0FA4010D0FA9007883A1444B03A0101FFC41E
:2007A000810024268120703A01000434213FFFC44110703A003FA8068089C83A01005E0E67
:2007A80010002B260081FFC480BF8B264A40203400800E041100A40E498CB03A300AC03A76
:2007B0000013883A2C4B883A2C63803A4A11883A8A11883A2823883A4080202C103FE026EA
:2007B800840000440081FFC48080D22600BFE03410BFFFC44090703A880AD07A400897FA89
:2007C00088C0004C28E2B03A4010D07A2462B03A003F71064088B03A20014526010004345A
:2007C80042000234213FFFC44110703A003F820618FFFFC41800491E898BC83A8963803A9F
:2007D0004251C83A4451C83A2823883A003F9F064984B03A103F6026213FFFC42000931E6C
:2007D800898D883A3463803A4251883A8A11883A3023883A003FD8061800541E8080004426
:2007E0001081FFCC00C000441880A00E8989C83A8905803A4267C83A98A7C83A9880202CA7
:2007E800100063263463C83A4A07C83A344D803A19A7C83A3825883A983F8A1E8809883A7E
:2007F000008310801080080410FFFE04010007C420FF890E10BFF6048884983A0023883A1B
:2007F8001C3F8C0E023FE034423FFFC480E1C83A1210703A003F38069007883A0011883A7B
:200800000005883A003F4C06498CB03A300CC03A0007883A003F680620009C1E80800044F7
:200808001141FFCC010000442140670E0101FFC411007F26898D883A4247883A3451803ABB
:2008100040D1883A402297FA300CD07A4010D07A1021883A89A2B03A003F1F060081FFC432
:2008180080BF481E003F1C06843FF844010008041406D83A41005026010010042211C83A81
:200820001204983A88A2B03A8822C03A1C62B03A0011883A0021883A003F7106193FF804F0
:20082800008008044908D83A188045260080100410C5C83A4886983A198CB03A300CC03AEE
:20083000218CB03A0007883A003F3B0680002A260101FFC41100682600C7C83A4200203435
:2008380001000E0420C07C16010007C420C0DA160100080420C9C83A4114983A88CAD83AFC
:200840008908983A40C6D83A5162B03A2008C03A8922B03A3463C83A48C7C83A344D803AE4
:200848001991C83A1021883A3825883A003F270624D0B03A40001B1E0005883A0007883A7F
:200850000021883A003F4D06008007C411003C16008008041105C83A488E983A310AD83ACC
:200858003084983A4912D83A394AB03A1004C03A288AB03A003F53064448B03A20003E26E4
:2008600000C6303A18003A1E3463C83A4A07C83A344D803A1991C83A1021883A3825883AF3
:20086800003F0A062023883A003F0D060081FFC480BF3F1E003EC8060005883A003FB10621
:200870000007883A003FBC064444B03A8000871E1000BA264984B03A103EBF268985883A5D
:200878004247883A1451803A40D1883A40C0202C1023883A183F1A2600BFE03410BFFFC4E6
:200880002021883A4090703A003EB3064444B03A8000291E10004B1E4990B03A40008B267E
:200888004811883A3023883A3825883A003EAA061021883A0011883A0005883A003F0F0632
:20089000217FF80400800804494AD83A20807D26008010041109C83A4912983A498CB03A9C
:20089800300CC03A298AB03A0013883A003F15060101FFC4113F9A1E4811883A3023883A41
:2008A0001021883A3825883A003E93068000161E444AB03A280051260108303A20004D1E86
:2008A80089A3883A4253883A898D803A3251883A1021883A003F08061000301E4984B03A81
:2008B000100071264811883A3023883A3825883A0401FFC4003E80064462B03A8822C03A72
:2008B8000007883A003F8B060141FFC411403B260109C83A4200203401400E042900671635
:2008C000014007C42900701601400804290BC83A4154983A890ED83A894A983A4108D83ACA
:2008C80051E2B03A280AC03A8962B03A89A3883A2253883A898D803A3251883A1021883AC5
:2008D000003EE5064984B03A103E63268987C83A88C9803A4245C83A1105C83A1100202C36
:2008D800203EBB263463C83A4A07C83A344D803A1991C83A3825883A003E57064984B03A7D
:2008E00010002E264004D0FA8822D0FA4010977A10C0022C4462B03A180008264808D0FAC3
:2008E80020C0022C1800051E300CD0FA4806977A2005883A3825883A19A2B03A8810D77AAE
:2008F000100490FA882290FA0401FFC44090B03A003E41060141FFC4117FC71E4811883A7A
:2008F8003023883A1021883A003E3B0610002F264984B03A100011264004D0FA8822D0FA74
:200900004010977A10C0022C4462B03A183FEB264808D0FA20C0022C183FE81E300CD0FAF5
:200908004806977A2005883A19A2B03A003FE3060011883A0005883A003E3F060401FFC4D7
:20091000003E25060013883A003F84060005883A0007883A003E8906197FF80401000804C2
:20091800414AD83A190024260100100420C7C83A40C6983A1C46B03A1806C03A28E2B03A91
:200920000007883A003F23060007883A5811883A00BFFFC40401FFC4003E78064462B03AFC
:200928008822C03A0009883A003FA0064811883A3023883A0401FFC4003E07064811883AFD
:200930003023883A003E040621FFF8040140080441CED83A21400A26014010042909C83AA6
:200938004108983A2448B03A2008C03A3922B03A0009883A003F8D060007883A003FDD063F
:200940000009883A003FF706DEFFEE04DD000C152828D53ADDC00F15282ED7FADC00081583
:2009480004000434DCC00B15843FFFC4DFC01115DF001015DD800E15DD400D15DC800A150E
:20095000DC400915A501FFCC2C20703AB827883ABA403FCCA00060260081FFC4202D883AC7
:20095800A080362684000434200AD77A800490FA202C90FAA53F004428A0B03A002B883A21
:20096000000B883A3804D53A3838D7FA044004348C7FFFC41081FFCC3025883A3C62703A19
:20096800E2803FCC10006D2600C1FFC410C065268C400434300ED77A880690FA302490FAF7
:2009700010BF004438E2B03A000F883AA087883A010003C43D44B03AE5CCF03A1A0000442A
:2009780020809B36100490BA0100023421097F041105883A108000171000683A00082850FB
:200980000008265C0008265C000826580008282C0008282C00082814000826580008282CDF
:20098800000828140008282C000826580008283C0008283C0008283C00082B9C2404B03A04
:200990001000711E054002040021883A002D883A01400084003FCB06500D883A0080008493
:2009980038805926008000C43881BB26008000443881961E3027883A0005883A0021883A36
:2009A000002D883A1004953A98C03FCC044004348C7FFFC4180697FA8460703A80A0B03A71
:2009A80080C6B03AB005883ADFC01117DF001017DDC00F17DD800E17DD400D17DD000C1735
:2009B000DCC00B17DC800A17DC400917DC000817DEC01204F800283A2404B03A202B883A88
:2009B80010004426800151268009883AD9800715D9C00215DA40041500831080D980071780
:2009C000D9C00217DA400417113FFD4400C007041901421600C0074415BFFE041907C83A5F
:2009C80085A0983AA8C6D83AADAC983A1C20B03A1080FCC400A9C83A002B883A000B883A92
:2009D000003F90063446B03A1800281E0023883A0025883A01C00084003F9C063446B03A1A
:2009D80018001E26880121268809883AD9400215D9800715DA400415DA8003150083108023
:2009E000D9400217D9800717DA400417DA800317113FFD4400C007041901101600C00744FE
:2009E80014BFFE041907C83A8CA2983A30C6D83A34A4983A1C62B03A1080FCC40085C83A07
:2009F000000F883A003F81063027883A0081FFC40021883A002D883A003FAA060023883A4D
:2009F8000025883A01C00044003F780601C000C4003F7606054001040021883A002D883ADA
:200A000001400044003F5F0605400304014000C4003F5C06040004340027883A843FFFC410
:200A080005BFFFC40081FFC4003F96068023883AB025883A280F883A003F88068023883A01
:200A1000B025883A480D883A280F883A003F8306B026D43A902ED43AB5BFFFCC94BFFFCC4A
:200A1800B00B883A9009883AD8C00515D9800715DA000615008316C0980B883A9009883AB1
:200A20001029883A008316C0B80B883A9809883A102B883A008316C0B809883AB00B883A24
:200A28001039883A008316C0A008D43A1545883AD8C005172085883AD9800717DA000617EF
:200A30001540022E01000074E139883A100E943A1004D43A882AD43AA53FFFCC8C7FFFCC7D
:200A38003D29883AB00B883A8809883AD8C00515D9800715DA000615DD000115D88000152A
:200A4000008316C0980B883A8809883AD8800215008316C09809883AA80B883A1029883AEA
:200A4800008316C0B00B883AA809883AD8800415008316C0D9C002171505883AD8C0051739
:200A50003826D43AD9800717DA0006179885883ADA4004171500022E010000744913883AC0
:200A58001028D43A1004943A802CD43A843FFFCC3CFFFFCC9009883A800B883AA269883A93
:200A6000D8C00515D9800715DA00061514E7883A008316C09009883AB00B883AD8800315FC
:200A6800008316C0B809883AB00B883AD8800215008316C0B80B883A8009883AD88004150C
:200A7000008316C0DA800317D9C00217D9000017502ED43A11C5883A24E5883AB885883A09
:200A7800D8C00517D9800717DA000617DA40041711C0022E010000744913883A100ED43A47
:200A80001004943A55FFFFCC3A53883A8809883A800B883AD8C00515D9800715DA0006154A
:200A8800DA40041515EF883A008316C08809883AB00B883AD8800215008316C0B00B883AE7
:200A9000A809883AD8800315008316C08009883AA80B883A1023883A008316C0D9C002174A
:200A9800DA800317D8C005173808D43A1285883AD98007172085883ADA000617DA40041765
:200AA0001280022E010000748923883A1008943A39FFFFCCE4B9883A21CF883AE4E7803A12
:200AA8003D0F883ABF39883A99C9883AE5EF803A490B883A1004D43AB965883A24C9803AF5
:200AB0003D29803AA128B03A95EF803A2A53803AA0A9883A4DEEB03AA5EF883ABC63883A77
:200AB800E004927AD9000117882E927A9022D5FAE038D5FA1104B03A9024927A1004C03A46
:200AC000BC62B03A1738B03A8880402CE4A4B03A100007269006D07A880497FA9480004C55
:200AC8008822D07A1CA4B03A14A4B03A4007883A1880FFC40080460E910001CC20000726EB
:200AD000910003CC01400104214004269149883A24A5803A8CA3883A2025883A8900402CC9
:200AD800200004261881000400FFC03418FFFFC488E2703A00C1FF8418BF1316882C977A2D
:200AE0009024D0FA8822927A1081FFCCB4ACB03A8820D33A3027883A003EBA068080022C22
:200AE800100009268880022C1000071E008004348C00023410BFFFC4E027883A80A0703AA5
:200AF000902D883A003F1706008004348400023410BFFFC480A0703A003F1206147FF60459
:200AF8003462983A0025883A003EF3063009883AD9400215D9800715DA400415DA80031513
:200B00000083108010800804DA800317DA400417D9800717D9400217003EDD06143FF60466
:200B0800AC20983A002D883A003EC106D9800715D9C00215DA400415008310801080080434
:200B1000DA400417D9C00217D9800717003EAE0600C000441887C83A01000E0420FE851604
:200B1800010007C420C01B160080080410C5C83A888A983A90C8D83A9084983A88E2D83ACD
:200B20002906B03A1004C03A1886B03A188001CC10000726188003CC0100010411000426BC
:200B28001805883A10C001041885803A88A3883A8880202C10001C263027883A0080004432
:200B30000021883A002D883A003E6E064007883A003F9706017FF8442885C83A888AD83AAD
:200B38000080080418801A260100100420C7C83A88E2983A8CA4B03A9004C03A2884B03AC1
:200B4000144001CC88000D1E0021883A102CD0FA3027883A0005883AB46CB03A003E590651
:200B48001007883A0023883A8820927A1805883A8822977A8020D33A003FF40610C003CCFC
:200B500001000104193FF6260023883A003FD5060023883A003FE706008004348C00023481
:200B580010BFFFC43027883A80A0703A902D883A003EAC06DEFFFD04DFC00215DC400115D3
:200B6000DC00001520002B262023883A2020D7FA20002D168809883A008310800141078467
:200B6800288BC83A01010CC42149C83A00C007C41900160E00C104C41947C83A88C6983AA7
:200B70000080043410BFFFC41886703A2941FFCC800D883A0005883A280A953A31803FCCCB
:200B780001000434300C97FA213FFFC41906703A1946B03A1986B03ADFC00217DC400117AD
:200B8000DC000017DEC00304F800283A00C002C41887C83A88C6D83A8904983A0100043444
:200B8800213FFFC42941FFCC1906703A800D883A003FE906000D883A000B883A0007883A4A
:200B90000005883A003FE4060123C83A003FD106200AD5FADEFFFD04DC40011529403FCC9C
:200B98002980004404402034DC0000158C7FFFC4DFC0021531803FCC008000448922703A6E
:200BA0002020D7FA1180110E880CD0FA8822977A2940E0042941FFCC2804953A0140043465
:200BA800800697FA297FFFC4314A703A288AB03A28C6B03A8805883ADFC00217DC400117D7
:200BB000DC000017DEC00304F800283A2800111E88001C268809883A0083108000C0028466
:200BB80018801B16018002C4308DC83A110005448986D83A8922983A0180E2440140043436
:200BC0003085C83A297FFFC4194C703A1141FFCC003FE00688000826880CD0FA00800434D6
:200BC80010BFFFC4318002348822977A308C703A0141FFC4003FD7060141FFC4000D883A7E
:200BD000003FD406000B883A000D883A003FD10611BFFD448986983A0023883A003FE60638
:200BD8002810D53A01C0043439FFFFC429CE703A4201FFCC380E90FA200CD77A4240004400
:200BE0004A41FFCC00C00044280AD7FA31CEB03A200490FA1A40230E40FF200401803F84CF
:200BE80030C0151600C0380E200C91BA380E90FA1004D77A300CC03A31CCB03A308CB03A5D
:200BF000308001CC10000426308003CC0100010411000126318001043081002C1000162692
:200BF80018C0004400803FC418800326300C91BA300CD27A0000020600FFFFC4000D883AD5
:200C000018C03FCC180895FA00C02034280A97FA18FFFFC430C6703A1906B03A1944B03AA1
:200C0800F800283A40000B1E388CB03A0007883A300004260180014400803FC4300CD0FAE9
:200C100018800A260080203410BFFFC4308C703A003FEB063888B03A203FE726380C90FA1C
:200C180000C03FC431808034003FD506303FE226008020343180103410BFFFC400FFFFC4E6
:200C2000308C703A003FDE06013FFA4419000E160100078420C9C83A018007C439C0203460
:200C280031000B16423F2084120C983A3A0E983A1104D83A300CC03A31CEB03A388CB03A37
:200C30000007883A003FBE060007883A003FD90601BFFF8430CDC83A00C00804398CD83A0C
:200C380020C00726423F28843A0E983A3884B03A1004C03A118CB03A0007883A003FB0064F
:200C4000000F883A003FF90600BFFFD41100053600803FC411000F36008008040007883A79
:200C4800000005060080403410BFFFC411000C2E0080020400C0060420C8D83A00C0027430
:200C500018C622041909883A20C0000310C5C83AF800283A0080060400C00204003FF606FD
:200C5800008004041007883A003FF3060005883A2000072620C0004C2008D07A18000126F2
:200C60001145883A294B883A203FFA1EF800283AF800283ADEFFFD04DFC00215DC40011535
:200C6800DC00001500C003C42005883A1980452E2906B03A18C000CC1800441E347FFC0417
:200C70008822D13A28C00104234001048820913A2B00020422C00204840005042A80030490
:200C7800224003042C21883A2811883A200F883A410000171FC0001763C000173900001522
:200C8000538000176FC000155BC000154B80001518C0040439C00404420004046B40040438
:200C8800630004045AC00404528004044A4004041C3FEF1E89C00044380E913A310003CC4D
:200C900002C000C411C7883A29CB883A5900212E1813883A2811883A200F883A4280001714
:200C98004A40010439FFFF044ABFFF154200010459FFFA36213FFF042008D0BA318000CCF4
:200CA000210000442109883A2109883A1907883A290B883A30000626198D883A29C000036F
:200CA80018C000442940004419FFFFC519BFFB1EDFC00217DC400117DC000017DEC0030412
:200CB000F800283A2007883A003FF2062007883A003FF106200D883A003FEE06DEFFFD048B
:200CB8002805883ADFC00015D9800115D9C0021521400217D9C00104100D883A008341405F
:200CC000DFC00017DEC00304F800283ADEFFFC04DFC00015D9400115D9800215D9C003157E
:200CC80000800274108D890410800017200B883AD98001041100021700856F00DFC0001726
:200CD000DEC00404F800283A00800274108D8904108000171100291510002A15F800283A45
:200CD80000800274DEFFFE04108D8904DC00001514000017DFC0011501932574810029173E
:200CE00081402A1701D614B4319FCB4439FD0B44008CAE80110000442085803A10C7883AE8
:200CE80000A0003410BFFFC41884703A8100291580C02A15DFC00117DC000017DEC00204B4
:200CF000F800283A00800274DEFFFC04108D8904DC0002152021883A11000017000D883AA0
:200CF800D80B883ADFC003150087DE0010000716D88000178000012680800015DFC003170A
:200D0000DC000217DEC00404F800283A00BFFFC4003FFA06DEFFB804DFC04715DDC0451592
:200D0800DD404315D9002D15282F883A302B883AD9C02E15DF004615DD804415DD00421505
:200D1000DCC04115DC804015DC403F15DC003E150087EE80108000171009883AD880341569
:200D18000089E840D8803715D8802D171000022610800E171000FB26B880030B10C8000C82
:200D20001800061EB900191700F7FFC41088001420C6703AB880030DB8C0191510C0020CCC
:200D28001800C326B8C004171800C1261080068C00C0028410C0C626D8C0040405000274D9
:200D3000D9001E04A5067284D8C01E15D8002015D8001F15D8003315D8003615D8003815BB
:200D38001811883AD8003915D8003A15D8002F15D9002815A880000710028B2600C0094432
:200D4000A823883A10C0021E0000140610C003268C40004488800007103FFC1E8D61C83A8B
:200D480080000E26D8C02017D8801F17454000151C07883A10800044D8C020154400011500
:200D5000D8801F1500C001C41880A91642000204D9402F172C0B883AD9402F15888000070F
:200D58001000AA268D4000448C4000470021883A00BFFFC40025883ADC002905D80027859D
:200D6000D8002B05D8802A15D800311504C01604058002449021883A4039883AAD4000442E
:200D680088BFF80498833236100490BA00C0023418CD700410C5883A108000171000683A08
:200D7000000841680008427000084270000841880008427000084270000842700008427085
:200D78000008427000084270000838700008407800084270000837340008389400084270BC
:200D8000000838E4000838F0000838F0000838F0000838F0000838F0000838F0000838F0DF
:200D8800000838F0000838F00008427000084270000842700008427000084270000842708F
:200D9000000842700008427000084270000842700008392C000839F400084270000839F4CA
:200D98000008427000084270000842700008427000083AA0000842700008427000083AAC0F
:200DA000000842700008427000084270000842700008427000083F300008427000084270A6
:200DA80000083F9C0008427000084270000842700008427000084270000842700008427032
:200DB0000008427000084270000842700008421400084194000839F4000839F4000839F41B
:200DB800000841B4000841940008427000084270000841C000084270000841D4000840584D
:200DC0000008374000084090000842700008409C00084270000841000008427000084270A7
:200DC80000084120D8C03117D8802E1500C7C83AD8C0311584000114AC400007003F970618
:200DD00000800C04D880270500801E04D8802745D9002A17D8802E17D8002785E011883A9B
:200DD80010C0010414C00017002D883A808000942002CA1600BFDFC480A4703AD8C02E15AB
:200DE000948000949802B41E0140027429466B04D940391504401E04D8802A170039883AE9
:200DE8001001FA260027883A002D883A00021906D9002D17B80B883A00857C801005DC1E8F
:200DF000B880030B00C002841080068C10FF3A1EB880038F103F3816D9C02E17D9002D176C
:200DF800A80D883AB80B883A008570C000001106D9002D17D9801E04B80B883A008A0180EB
:200E00001000081EDA000404003F5106D880201710000426D9002D17D9801E04B80B883A3E
:200E0800008A0180B880030B1080100C1005C01ED8802F17DFC04717DF004617DDC045170A
:200E1000DD804417DD404317DD004217DCC04117DC804017DC403F17DC003E17DEC0480429
:200E1800F800283AD9002D1700877D40003F0206D9002E17D9402E17210000172880010457
:200E2000D9003115203FA716D8802E15AC400007003F4206AC40000701000A84A8C0004434
:200E2800890758268CBFF404B486AE360009883A1823883A01400284008316C088C0000704
:200E30001489883A8D4000441CBFF404A823883AB4BFF82E1823883A2005F616D9002A15F3
:200E3800003F2F0684002014AC400007003F2B068CBFF404D80031150009883AA823883A52
:200E400001400284008316C088C000079089883AAD4000441CBFF404A823883AB4BFF82E1E
:200E48001823883AD9003115003F1D068025883ADC002903E011883A84003FCC8007531E63
:200E5000948004149080080C1003A326D9002E172080011724C0001721000204D9002E1542
:200E5800102D883A10047316D9002A17DF0027832003E41600FFDFC49D84B03A90E4703A53
:200E600010018026B003AB26DC402915DC001E04B023883A402D883A9809883A880B883A63
:200E680001800284000F883A008D1F0010800C04843FFFC49809883A880B883A8080000503
:200E700001800284000F883A008CBF401027883A10C4B03A1823883A103FEF1ED8C0281718
:200E7800DC402917B011883A1C07C83AD8C02B1500005F068025883ADC002903E011883AF7
:200E800084003FCC80071E1E9080020C1004AF26D9002E17D9402E17D8802E1721000017A8
:200E88002940011710800204D9003615D9403815D8802E15D9003617D9403817DA003D1554
:200E9000040000440089BA40DA003D171404441ED9003617D9403817000D883A000F883AA1
:200E9800008E49C0DA003D171005E316DF002783008011C41445580E04000274840663045F
:200EA00000C000C400BFDFC4D8C0291590A4703AD8C02B15D8002A15D800321500003A064A
:200EA80084000214AC400007003EBC068025883ADC002903E011883A84003FCC8007001E47
:200EB000948004149080080C1002FA26D9002E17D9402A17D80027852080020424C0001703
:200EB800258001172804B116013FDFC49D86B03AD8802E159124703A1802FB1ED8C02A1774
:200EC0000039883A1805E5260027883A002D883ADC001E049806D0FAB008977AB02CD0FA42
:200EC8009CC001CC98800C04843FFFC420E6B03A808000059D86B03A183FF61E90C0004C2A
:200ED0001801412610803FCC1080201C10BFE00400C00C0410C13C2680FFFFC5D8C028174B
:200ED80080BFFFC41021883A1887C83AD8C02B15D8802B17D9002A171100010E2005883AD1
:200EE000D8802915D8003215E7003FCCE700201CE73FE004E0000326D8C0291718C0004421
:200EE800D8C0291590C0008CD8C02C1518000326D8C0291718C00084D8C0291590C0210C97
:200EF000D8C030151801C51ED9003117D8C0291720E7C83A04C1C10E02400404D8C020175A
:200EF800D8801F174CC52F0E0140027429467684DC403B15D94035159823883A482D883A5B
:200F00009027883A070001C48025883ADC002D17000003068C7FFC0442000204B440130E94
:200F08000100027418C0040410800044210676844100001545800115D8C02015D8801F15F3
:200F1000E0BFF40ED9801E04B80B883A8009883A008A0180103EF31E8C7FFC04D8C0201791
:200F1800D8801F17DA000404B47FED169021883A9825883A8827883ADC403B17D9403517DD
:200F200098C7883A108000444140001544C00115D8C02015D8801F15010001C42082C51670
:200F2800DF00278742000204E0000C26D8801F17D900278418C0004410800044410000156A
:200F30000100004441000115D8C02015D8801F15010001C420825E1642000204D8802C17ED
:200F380010000C26D8801F17D900270418C000841080004441000015010000844100011563
:200F4000D8C02015D8801F15010001C42082581642000204D9003017008020042081BB26D4
:200F4800D9402A17D8802B1728ADC83A0580310E07000404D8801F17E584360E01400274F9
:200F500029467284DC402A15D9402C15B023883A04C001C4A82D883A902B883A8025883ACE
:200F5800DC002D17000003068C7FFC0442000204E440110E18C004041080004445000015AC
:200F600047000115D8C02015D8801F1598BFF60ED9801E04B80B883A8009883A008A01800A
:200F6800103EA01E8C7FFC04D8C02017D8801F17DA000404E47FEF169021883AA825883AA9
:200F7000B02B883A882D883ADC402A17D9002C171D87883A10800044410000154580011569
:200F7800D8C02015D8801F15010001C420821016420002049080400C10013A1ED9402B170A
:200F8000D8801F17440000151947883A1080004441400115D8C02015D8801F15010001C4BE
:200F88002081F516420002049480010C90003226D9403117D880291728A1C83A04002E0E48
:200F900004400404D8801F178C04C40E0140027429467684D9403515048001C4DCC02D1759
:200F980000000306843FFC04420002048C00130E0100027418C0040410800044210676842C
:200FA0004100001544400115D8C02015D8801F1590BFF40ED9801E04B80B883A9809883A34
:200FA800008A0180103E5F1E843FFC04D8C02017D8801F17DA0004048C3FED16D94035171E
:200FB0001C07883A108000444140001544000115D8C02015D8801F15010001C42080060EA5
:200FB800D9002D17D9801E04B80B883A008A0180103E4C1ED8C02017D8803117D9002917B1
:200FC0001100010E2005883AD9402F17288B883AD9402F151801C01EA8800007D8001F15A7
:200FC800DA000404103D751EA823883A003D8B068025883ADC002903E011883A84003FCC3B
:200FD0008005E51E948004149080080C10022B26D9002E17D9402A17D800278520C00204E4
:200FD80024C000172580011728042E16013FDFC49D84B03AD8C02E159124703A0039883AAE
:200FE000103E801ED9002A172002E01ED8002A15D8002B15DC001E04003EF5068025883AFE
:200FE800DC002903E011883A84003FCC8005BA1E0100027421066604D90039159080080CEF
:200FF00010006126D9402E172CC000172D80011729400204D9402E159080004C1001AC261A
:200FF8009D84B03A10038526D8C02A1700800C04D8802705DC402745D80027859080009473
:201000001804791600BFDFC490A4703A948000940039883AD9003917DC001E04988003CC34
:20100800B006973A2085883A9826D13A10800003B02CD13A843FFFC41CE6B03A8080000520
:201010009D84B03A103FF51ED8C028171C07C83AD8C02B15003EC6068025883ADC00290306
:20101800E011883A84003FCC803E9626D8C02B03D8C02785003E930600C00044D8C0290551
:2010200000C00AC4D8C02B05AC400007003D430684000814AC400007003D4006D8802E172E
:201028008025883AD800278514000017E011883A14C0010480042D26D8C02A171803E41641
:20103000180D883A000B883A8009883ADF003D1500888E00DA003D17100468261405C83A6F
:20103800D8802B151003E016DF002783D8802915DCC02E15D8002A15D8003215003EA206DD
:201040008025883ADC002903E011883A84003FCC803F8D26D8C02B03D8C02785003F8A0694
:201048008025883ADC002903E011883A84003FCC8005661E0100027421066B04D90039159A
:201050009080080C103F9F1E9080040C1002EB26D8802E17002D883A14C000171080010401
:20105800D8802E15003F9C06D8802B071002E11E00C00044D8C0290500C00804D8C02B0503
:20106000AC400007003D050684000054AC400007003D02068025883ADC002903E011883A03
:2010680084003FCC803DE726D8C02B03D8C02785003DE40684001014AC400007003CF7060A
:20107000AC40000700801B0488838F2684000414003CF2068025883ADC002903E011883A1C
:2010780084003FCC80053F1E9080080C1002D226D9002E17D9402F17208000172807D7FA85
:2010800021000104D9002E151140001510C00115003CB806D8C02E17D9002E178025883A66
:20108800188000172100010400C00044E011883AD8C02915D8002785D8801405D9002E15D5
:20109000D8C02B15D8002A15D8003215DC0014040039883A003E53060100027421066B049F
:201098000039883AD900391504401E04003F69068025883ADC002903E011883A84003FCC51
:2010A0008005081E883D612600C00044D8C02915DC401405D8002785003FE90601400274C1
:2010A80029466B04D9403915D8C02E151025883A04401E049D84B03A1000FC1E0039883A7B
:2010B0000080008410803FCC00C0004410C20F2600C0008410FD3326003E0B06D8C02017AE
:2010B800003E71060080194414407E0ED9003617D9403817000D883A000F883AD8C03C158F
:2010C000DA003D15008E3380D8C03C17DA003D171000F71ED8801F170100027421067204C3
:2010C80018C0004410800044410000150100004441000115D8C02015D8801F15010001C407
:2010D0002082B81642000204D8802617D9403317114002169080004C103EB326D8803717BE
:2010D800D9003417D94037171887883AD8801F17410000154140011510800044D8C02015F0
:2010E000D8801F15010001C42083291642000204D8803317143FFFC4043EA30E044004047D
:2010E800D8801F178C00880E0140027429467284D9402C15058001C4DCC02D17000003068F
:2010F00042000204843FFC048C00820E18C00404108000444500001544400115D8C0201544
:2010F800D8801F15B0BFF60ED9801E04B80B883A9809883A008A0180103D0A1ED8C0201727
:20110000D8801F17DA000404003FEE06D9403117D880291728ADC83A05BE410E070004043B
:20110800D8801F17E5838F0E0140027429467284DC403015D9402C15B023883A04C001C43F
:20111000A82D883A902B883A8025883ADC002D17000003068C7FFC0442000204E440110E85
:2011180018C00404108000444500001547000115D8C02015D8801F1598BFF60ED9801E041D
:20112000B80B883A8009883A008A0180103CE51E8C7FFC04D8C02017D8801F17DA0004043B
:20112800E47FEF169021883AA825883AB02B883A882D883ADC403017D9002C171D87883A44
:20113000108000444100001545800115D8C02015D8801F15010001C420818E1642000204EE
:20113800003E0F06D94033170080004418C000441141530EDC401F17008000444080011562
:201140008C40004444000015D8C02015DC401F15008001C414416B1642000204D880371700
:20114800D90034178C40004410C7883A4080011541000015D8C02015DC401F15008001C42C
:201150001441691645800204D9003617D9403817000D883A000F883AD8C03C15008E338088
:20115800D8C03C171000BC26D9403317840000448C40004428BFFFC41887883AB08001150E
:20116000B4000015D8C02015DC401F15008001C414414316B5800204D9003A17DF0022C46C
:201168008C40004420C7883AB7000015B1000115D8C02015DC401F15008001C414400E1641
:20117000B2000204003E18060100027421067284D9002C15D9002C171C07883A4400011542
:201178004100001510800044D8C02015D8801F15010001C420BE0B0ED9002D17D9801E047F
:20118000B80B883A008A0180103C861ED8C02017DA000404003E0406D9002D17D9801E043E
:20118800B80B883A008A0180103E3B26003C7D06D9002D17D9801E04B80B883A008A018021
:20119000103C781ED8C02017DA000404003DE906D9002D17D9801E04B80B883A008A018058
:20119800103C701ED8C02017DA000404003D9B06D9002D17D9801E04B80B883A008A0180A6
:2011A000103C681ED8C02017DA000404003DA106D9402A17D8002785283F061600FFDFC4C5
:2011A8009D84B03A90E4703A103C3B260039883A003E58069080040C1001B326D8C02E17D3
:2011B000D9002A17D8002785188001041CC00017002D883A2001B51600FFDFC4D8802E15D9
:2011B80090E4703A983D05260039883A003D0806DC4026170441D30EDC403217D88033172D
:2011C0001440010E1023883A04400A0ED8801F171C47883A440000151080004444400115E1
:2011C800D8C02015D8801F15010001C4208265164200020488026116D90032172463C83AD7
:2011D00004407B0E05800404D8801F17B4419D0E0100027421067284D9002C15070001C4FD
:2011D800DCC02D1700000306420002048C7FFC04B441970E18C00404108000444500001513
:2011E00045800115D8C02015D8801F15E0BFF60ED9801E04B80B883A9809883A008A0180AA
:2011E800103C201ED8C02017D8801F17DA000404003FEE06D9002D17D9801E04B80B883ACE
:2011F000008A0180103C171ED8C02017DF002787DA000404003D34069080040C10016126E6
:2011F800D9402E172CC0001729400104D9402E15982DD7FAB005883A003C5A069080040CE3
:2012000010003526D8C02E17D9002A17D8002785188001041CC00017002D883A20003716FC
:2012080000FFDFC4D8802E1590E4703A0039883A983DD4260080024414FC5336D8C028176B
:20121000DC001DC49CC00C041C07C83ADCC01DC5D8C02B15003CC606D8803317143FFFC45A
:20121800043F4D0E07000404E400810E0140027429467284D9402C1501C001C4DCC02D17BA
:2012200000000306B5800204843FFC04E4007B0E18C004048C400044B5000015B7000115B3
:20122800D8C02015DC401F153C7FF60ED9801E04B80B883A9809883AD9C03C15008A018072
:20123000D9C03C17103BD71ED8C02017DC401F17DD800404003FEC069080100CD80027850B
:2012380010010E26D9402E17D8C02A17002D883A288001042CC0000B183FC90ED8802E15BE
:201240000039883A9D84B03A103C1E1E00800044003E6C06D9002D17D9801E04B80B883A6F
:20124800008A0180103BBF1ED8C02017DA000404D9003217D8802617D94033178123883A22
:20125000114002169100004C20000D26D9003717D94034171907883AD9001F1741400015D3
:20125800D940371721000044D8C0201541400115D9001F15014001C42901E81642000204C3
:20126000D90033178121883A2085C83A8461C83A1400010E1021883A04000A0ED9001F1718
:201268001C07883A444000152100004444000115D8C02015D9001F15014001C42901FB160E
:20127000420002048001F7161421C83A043D160E04400404D8801F178C3EFB0E0140027488
:2012780029467284D9402C15058001C4DCC02D170000030642000204843FFC048C3EF50E8C
:2012800018C00404108000444500001544400115D8C02015D8801F15B0BFF60ED9801E045F
:20128800B80B883A9809883A008A0180103B7D1ED8C02017D8801F17DA000404003FEE06FB
:201290009088703A203EAB1EDC401F1740800115440000158C400044D8C02015DC401F15A7
:20129800008001C414400E1645800204003ECA060100027421067284D9002C15D8802C1757
:2012A0001C07883A8C400044B0800015B4000115D8C02015DC401F15008001C4147EBD0E6B
:2012A800D9002D17D9801E04B80B883A008A0180103B5C1ED8C02017DC401F17DD800404B3
:2012B000003EB506D9002D17D9801E04B80B883A008A0180103B531ED8C02017DC401F1720
:2012B800DA000404003E8D06D9002D17D9801E04B80B883A008A0180103B4A1ED8C02017B9
:2012C000DC401F17DD800404003E8F060027883A003F4A06D9002D17D9801E04B80B883AEF
:2012C800008A0180103B3F1ED8C02017DA000404003C7B06D9402A1704E7C83A07000B4448
:2012D0009804C03A05ADC83ADF002785B0ADC83A28017B1600BFDFC490A4703A003B890606
:2012D800D9003617D9403817DA003D150089BA40DA003D171000F026D9002A1705BFF7C4CC
:2012E00000BFFFC48DAC703A20820026008011C4B081F726D900381790C04014D8C02C1579
:2012E80020021516DCC03817D8002905008019848881F9260080118488821C26008011442D
:2012F000B081EF26D8C02A17D8802104D8800315D9403617D8802504D9002D17D88002155F
:2012F800D8802604D8C00015D880011501C00084980D883AD8C03C15DA003D150085B440FF
:201300001021883A008019C4D8C03C17DA003D1788817126008011C48882912680F9883A73
:20130800D9003617000D883A000F883A980B883ADA003D15008E3380DA003D1710018D263B
:20131000D88021171700062E01000C0410C00044D8C0211511000005D8802117173FFB36C2
:201318001405C83AD8803315008011C4B0817626008019441442800ED8C026170080198425
:20132000D8C032158881FE26D8C03217D90033171901DD169480004C90022B1E1805883A76
:2013280018028316D8C03217044019C4D8C02B15DF002907E001531EDF002783D880291598
:20133000DC802C17D8002A15003BAF06D8C02E17D9002E17D9402E1718C000172100011776
:2013380029400204D8C03615D9003815D9402E15003B5006AC400007003A28069080100CA9
:201340001000A826D8C02E17002D883A1CC0000B18C00104D8C02E15003CAF06D9002E1735
:20134800D9402A17002D883A2080010424C00017283EBB0E003EF1069080040C1000921E58
:201350009480100C90013926D9402E17D8C02F172880001729400104D9402E1510C0000DBB
:201358000039E4069080100C10008026D8802E1714C0000F10800104D8802E15982DD7FA2A
:20136000B005883A003AF7069080100CD800278510008A1ED9002E17D9402A17002D883AF0
:201368002080010424C00017283E4B0E9D86B03AD8802E15183E4C1E0039883A0005883ADC
:20137000003D40060140027429467284D9402C15D9402C171C47883A108000444140001579
:2013780044400115D8C02015D8801F15010001C420BEC81642000204003ECD06D9002A176D
:20138000D8002785203D2D1600BFDFC490A4703A003A61060100027421067284D9002C159A
:20138800003BEA06D9002D17D9801E04B80B883A008A0180103A7B1ED8C02017DA0004045E
:20139000003D4106D8801F17014002740100004418C0004410800044294672044100011503
:2013980041400015D8C02015D8801F15010001C420805C16420002048800041ED8803317DA
:2013A0001000021E9080004C103BE726D9003717D8801F17D940341720C7883A10800044B3
:2013A8004100011541400015D8C02015D8801F15010001C420812116420002040463C83A90
:2013B0000440730E05800404B440860E0140027429467284D9402C15070001C4DCC02D1721
:2013B80000000306420002048C7FFC04B440800E18C004041080004445000015458001154E
:2013C000D8C02015D8801F15E0BFF60ED9801E04B80B883A9809883A008A0180103A411EFA
:2013C800D8C02017D8801F17DA000404003FEE0600BFFFC4003A3F06008011C41440B8161B
:2013D000040002748406640400C000C400BFDFC4D8C0291590A4703ADF002783D8C02B1596
:2013D800D8002A15D8003215003B0706D8C02E171CC0001718C00104D8C02E15982DD7FA59
:2013E000B005883A003A7706D8C02E17D9002F171880001718C00104D8C02E151100001536
:2013E80000395406D9002E17002D883A24C0001721000104D9002E15003C0706D9402E1761
:2013F000D8C02A17002D883A288001042CC0000B183DC10E003F7506040002748406620429
:2013F800003AA706D9002D17D9801E04B80B883A008A0180103A0B1EDC402617D8C020172B
:20140000DA000404003F9C06AC40004384000814AD4000448C403FCC8C40201C8C7FE0043B
:2014080000395E06D8C02E150039883A003E3506D9002D17D9801E04B80B883A008A0180B0
:201410001039F81ED8C02017DA000404003CD0068009883ADF003D150089E840D8802B15D5
:20141800DA003D17103C200E0005883A003C1E06D9002D17D9801E04B80B883A008A0180BD
:201420001039E81ED8C02017D8801F17DA000404D9403317108000444400001528C7883ADD
:20142800003B5B060100027421067684D9003515003AF206013FFFC4003A08060023883AEB
:20143000003D9D06D9002D17D9801E04B80B883A008A01801039D31ED8C02017DA000404A9
:20143800003D94060100027421067284D9002C15D9002C171C47883A1080004441000015A4
:2014400044400115D8C02015D8801F15010001C420BFD71642000204003FDD06D9002D1780
:20144800D9801E04B80B883A008A01801039BD1ED8802617D8C02017DA000404003E1006BB
:201450000080004410803FCC00C0004410FA0D2600C0008410FBAF26003A6D060100027494
:2014580021067684D9003515003B5406D8802A1700C001841880012E1805883AD8802B157F
:201460001000EF1604000274D8802915DCC02E15D8002A15D8003215840670040039883A39
:20146800003A80060021883A003E0706D9002D17D9801E04B80B883A008A01801039991E4E
:20147000D8802617D9403317D8C02017DA0004042885C83A003DFB069080004C103E8F1E6F
:20147800D8802117003E9E061025883A0039883A00800084003FD30607000B44DF002785F3
:20148000003A1B0600C00B44D8C02785D8802915DC802C17D8002A1507000B44003A5E065E
:201488000400027484066504003F4706D9002E17D9402F172080001721000104D9002E15D5
:20149000114000150038AB06DD80261700BFFF44B0801C16D9402A172D801A16DD80321514
:20149800003E89060100027421067284D9002C15003C9106E005883A003E7906D9002A1768
:2014A000DF002783DCC02E15D9002915D9002B15D8002A15D8003215003A3B069080004C87
:2014A8000039883A1000042600800C04DC001DC4D8801DC5003B6406D8002B15DC001E04AD
:2014B000003A2B068C7FFF84B5BFFFC4DD802615DC4022C5B000BF1600800AC4D8802305FE
:2014B800008002441580701600800C04B5800C04D8802345DD802385D88023C4DF0022C495
:2014C000D8C033171739C83AD9003317E0C7883ADF003A15D8C02B15008000441100B30EB0
:2014C800D8C02B1718C00044D8C02B151805883A1800AC16D8003215003E5D06D9002D17A0
:2014D000D9801E04B80B883A008A01801039351EDC402617D8C02017D8801F17DA000404BD
:2014D800003ED606182B883AD8002A1500388C06D8802A17103E071EDC002A15003E050684
:2014E000D9002A1720C00044003E0F0601400184D9402A15003DFF06D8802104D88003150E
:2014E800D8802504D8800215D8802604D8800115D8802A17D9403617D9002D17D88000157B
:2014F00001C000C4980D883ADA003D150085B440D8C02A17DA003D171021883A10F9883A86
:2014F8008100000700800C0420805E26D8C02617E0F9883A003E0A0600C00B4424E0003C8B
:20150000D8C02905003DE906D8C0321700C07A0E00800044D90033171105883AD8802B1559
:2015080010004E16044019C4003E2106D9002A17D8802104D8800315D9000015D880250453
:20151000D9403617D9002D17D8800215D8802604D880011501C000C4980D883ADA003D15C1
:201518000085B440D8C02A17DA003D171021883A0080118480F9883A88BFD926003DE8067F
:20152000D9002A1700C04D0E2000441E9480004C9000421E1805883A18006F16D8C0321747
:20152800D8C02B15003E0206DF0022C4DC002A154027883AE021883AB009883A0140028477
:20153000008D838010800C04843FFFC4B009883A0140028480800005008D7B40102D883A57
:201538000080024415BFF4169811883AB0800C048027883A997FFFC498BFFFC5DC002A17C8
:201540002F006D2ED9C023843CCFC83AD9002344E1CF883A0000010628800003208000056B
:201548002100004429400044393FFB1ED880230414C5C83AD8C023441885883A003F700673
:201550000005883A003F0F06D8C0321718C00044D8C02B151805883A183FB20E0005883ACE
:20155800003FB006D9003617000D883A000F883A980B883AD8C03C15DA003D15008E3380FD
:20156000D8C03C17DA003D17103F98260080004410C7C83AD8C02615003F9506D9002A17E1
:20156800D8C03217208000441885883AD8802B15103DBF0E0005883A003DBD062000201E68
:201570009480004C90001E1E00800044D8802B15003DB70600800B4405ADC83AD8802305D6
:20157800003F3F060005883A003F520690A4703A903F4E26003F4A060080008410C5C83AE6
:20158000003F8406D9402E17D9002E17AC4000432940001720800104D8802E15D9402A15BF
:20158800182B883A283E7B0E8C403FCC017FFFC48C40201CD9402A158C7FE0040037D706D2
:20159000D8C02A1718C00084D8C02B151805883A183D970E003FD7060005883A003F8F069E
:201598009080004C103F821ED88021171405C83AD8803315B47EF426DD802617003F120660
:2015A000D8C02B03D8C027850038DF06D8C02B03D8C027850038AA06D8C02B03D8C0278508
:2015A800003A4306D8C02B03D8C02785003AF5060005883A003D7B06D8802344003F1006C8
:2015B000D8C02B03D8C027850038FD06D8C02B03D8C02785003A9706D8C02B03D8C02785EB
:2015B800003A1806D8C02B03D8C02785003ABE0600800274108D8904300F883A280D883A9B
:2015C000200B883A11000017008341412880030B2AC019172A80038B2A4007172A00091717
:2015C800DEFEE20400C10004DC011A1510BFFF4C2821883AD8CB883ADC811C15DC411B150B
:2015D000DFC11D152025883AD881030DDAC11915DA81038DDA410715DA010915DEC1001521
:2015D800DEC10415D8C10215D8C10515D8010615008341401023883A10000416D9410004A3
:2015E0009009883A00873E8010000D1ED881030B1080100C100003268080030B1080101402
:2015E8008080030D8805883ADFC11D17DC811C17DC411B17DC011A17DEC11E04F800283AA8
:2015F000047FFFC4003FF10600800274DEFFFD04108D8904DC4001152023883A1100001702
:2015F800DC000015DFC002152821883A2000022620800E17100031268080030B10C0020CC1
:201600001009883A18000F2680C00417180015261100004C20001C1E1080008C1000291ECA
:20160800808005178080021518001C260005883ADFC00217DC400117DC000017DEC00304EA
:20161000F800283A2080040C10002E262080010C10001E1E80C00417208002148080030D32
:20161800183FEB1E1100A00C01408004217FE826800B883A8809883A0087F1808080030B7C
:2016200080C00417003FE20680800517800002150085C83A80800615183FE41E80C0030B2C
:201628000005883A1900200C203FE12618C0101480C0030D00BFFFC4003FDD0600877D40FC
:20163000003FCD060005883A003FD60681400C172800062680801004288003268809883A36
:20163800008794808100030B80000C1580C0041700BFF6C41108703A8000011580C0001545
:20164000003FD5060080024488800015208010148080030D00BFFFC4003FC506DEFFF2045A
:20164800DDC00B15208004172DC00417DFC00D15DF000C15DD800A15DD400915DD00081590
:20165000DCC00715DC800615DC400515DC00041515C07A16BDFFFFC4BDE9883A28C00504E3
:20165800A529883A1D39883A24C00504D94002159D29883AE1400017D9000015A100001747
:2016600029400044D8C00115DD000315008D8AC01025883A10003026DC4001179829883A2F
:20166800002D883A0021883A8D400017900B883A8C400104A93FFFCC008316C0A808D43AB4
:20167000900B883A15AD883A008316C0A1000017B00CD43AB0FFFFCC217FFFCC2C21883AAA
:2016780080C7C83A2008D43A1185883A1821D43A117FFFCC2149C83A2421883A8008943A10
:2016800018FFFFCC102CD43A20C8B03AA10000158021D43AA5000104E47FE32ED8C0031717
:201688001880001710000C1E18BFFF049880082E18FFFF17180003260000050610C00017D1
:201690001800031E10BFFF04BDFFFFC498BFFB36D8C000171DC00415D9400217D900001761
:201698000089470010002816DC40011794800044980D883A0007883A310000178940001730
:2016A0003180010420BFFFCC10C7883A28BFFFCC1885C83A280AD43A2008D43A1007D43A45
:2016A80010BFFFCC2149C83A20C9883A200A943A8C4001042007D43A2884B03A30BFFF15DA
:2016B000E47FED2EBDC5883A1085883A9887883A1880001710000C1E18BFFF049880082E0F
:2016B80018FFFF17180003260000050610C000171800031E10BFFF04BDFFFFC498BFFB36A0
:2016C000D8C000171DC004159005883ADFC00D17DF000C17DDC00B17DD800A17DD400917CF
:2016C800DD000817DCC00717DC800617DC400517DC000417DEC00E04F800283A0005883AD3
:2016D000003FF20620801017DEFFDE04DF002015DCC01B15DC801A15DC401915DC0018157F
:2016D800DFC02115DDC01F15DD801E15DD401D15DD001C15D9C003152039883A3023883A7E
:2016E0002825883ADC0024173027883A100008262180111700C00044100B883A1986983A52
:2016E8001180011510C002150088B940E000101588002E1680000015889FFC2C00DFFC340F
:2016F00010C01C26000D883A000F883A9009883A980B883A008E338010002B1ED9C02317FB
:2016F8000080004438800015D880251710019E26D8C0251700800274108672441880001515
:2017000010BFFFC4DFC02117DF002017DDC01F17DD801E17DD401D17DD001C17DCC01B17B6
:20170800DC801A17DC401917DC001817DEC02204F800283AD8C023170089C3C41880001530
:20171000900177260080027410867E04D9002517203FEC2610C000C71801781E10C000C41D
:20171800D980251730C00015003FE60604E000349CFFFFC4008000448CE6703A8080001581
:201720009823883A003FCC06D8800204D8800015D9C00104900B883A980D883AE009883A43
:201728008820D53A008983C0D88009158001651EDD800217DC00011700800804B421883A17
:2017300080C10C8410C2D10E008010048101048410C7C83A9108D83A88E2983A2448B03A63
:20173800008EF0C0017F8434018000441009883A194B883A843FFFC4D9801115000D883A81
:2017400001CFFE34008E59000198DBF401CFF4F43190D84439E1E9C41009883A180B883A1C
:201748000082508001A2D87401CFF1F431B22CC439E28A04180B883A1009883A0081C5C049
:201750008009883A1029883A1823883A0082D740019427F401CFF4F4319E7EC439D104C452
:201758001009883A180B883A00825080100D883A180F883AA009883A880B883A0081C5C0D1
:201760001009883A180B883A1029883A1823883A008EE8C0000D883A000F883AA009883A70
:20176800880B883AD8800515008E49C010028716D8C005170080058410C27536180490FA74
:2017700000C0027418C69A041885883A1100001711400117900D883A980F883A008E3C0025
:2017780000828D0ED9000517D8000E15213FFFC4D9000515B42DC83AB5BFFFC4B0026F16DD
:20178000D8000815D9C0051738026416B1ED883AD9C00D15D8000A15D980031700800244A0
:2017880011811436008001441184E10E31BFFF04D98003150023883AD9800317008000C41C
:20179000308367261183410ED9C003170080010438827C26008001443884C41E008000445B
:20179800D8800B15D8C00517D90022171907883A19800044D8C00C15D98006150183A40ED1
:2017A000D98006173021883AE0001115008005C41184C92E00C00044008001041085883AE5
:2017A80011000504180B883A18C00044313FFB2EE1401115E009883A0088AEC0D880071511
:2017B000E0801015008003841400F7368800F626D9C0051701C39A0E388003CC100490FA62
:2017B800382BD13A00C0027418C69A041885883AA8C0040C124000171200011718037926CD
:2017C00000800274108690041180081711C009179009883A980B883ADA001715DA4016153D
:2017C800008D9680DA001717DA401617AD4003CC040000C41023883A1829883AA8001126B4
:2017D00005C00274BDC690044805883A4007883AA980004C1009883AA82BD07A180B883A3D
:2017D80030000426B9800017B9C001178400004400825080BDC00204A83FF51E1013883A3A
:2017E0001811883A480D883A400F883A8809883AA00B883A008D9680D8800F15D8C010153A
:2017E800D8C00E1718000626D9000F17D9401017000D883A01CFFC34008E49C010040B1606
:2017F0008009883A0082D740D9800F17D9C010171009883A180B883A00825080000D883AD5
:2017F80001D007341009883A180B883A0081C5C01021883AD8800617047F30341C63883A6F
:2018000010031826D8C00517DB000617D8C01315D9000B1720038F2660BFFFC4100490FAB8
:2018080000C0027418C69A041885883A1180001711C00117D88007170009883A014FF83461
:20181000DB00161515C00044008D9680800D883A880F883A1009883A180B883A008E5900A7
:20181800D9401017D9000F17102B883AD8C01215008EE8C01009883A1029883A0082D74010
:20182000D9000F17D9401017100D883A180F883A008E59001823883AD8C00717D9401217C5
:20182800A2000C041021883A1A000005800D883A880F883AA809883A4029883A008E3C00CC
:2018300000841D16800D883A880F883A0009883A014FFC34008E5900D9401217100D883AE6
:20183800180F883AA809883A008E3C00DB00161700840E160080004413006B0ED900071773
:20184000DD800F15DCC010152319883ADCC01217602D883ADC801215B825883A0000090603
:20184800008E5900A80D883A980F883A1009883A180B883A008E49C01003E816B825883AB2
:20185000BD83E926A809883A980B883A000D883A01D0093400825080000D883A01D0093445
:201858008009883A880B883A102B883A1827883A00825080180B883A1009883A1821883AC5
:201860001023883A008EE8C01009883A1029883A0082D7408809883A800B883A100D883A4F
:20186800180F883A008E5900A5000C04A80D883A980F883A1009883A180B883A95000005A1
:201870001021883A1823883A008E49C0BDC00044800D883A880F883A0009883A014FFC341D
:20187800103FCF0ED8C01317D8C00515D9400917E009883A0088B940D9000517D9802317C3
:20188000D9C02517B800000520800044308000153802AA263DC00015D8800717003E7906BE
:201888000080043410BFFFC488A2703A883E851E0080027410867B04003E840610C0020410
:20189000003E870601400434297FFFC4994A703A9009883A843F0044294FFC34DD8002177C
:20189800D8001115003EA5060080027410867204003E6406E0001115000B883AE009883A21
:2018A0000088AEC001BFFFC401C00044D8800715D9800C15E0801015D8000315D9C00B158E
:2018A800D9800615D8002215D880011710008916D900051700C0038419008616200490FADF
:2018B00000C00274D980221718C69A041885883A140000171440011730016316800D883AE5
:2018B800880F883A9009883A980B883A008D9680180B883A1009883A008EE8C01009883A83
:2018C000102B883A0082D740800D883A880F883A1009883A180B883A00825080100D883AD9
:2018C800180F883A9009883A980B883A008E5900D9C007171009883AA8800C0438800005E9
:2018D0003DC00044D9C0061701800044180B883A2005883A39803826000D883A01D009347C
:2018D80000825080000D883A000F883A1009883A180B883A1025883A1827883A008E338005
:2018E000103F9A26D9C00617D8C00717B829883A38BFFFC418AD883A00000A060082508027
:2018E800000D883A000F883A1009883A180B883A1025883A1827883AB829883A008E3380A4
:2018F000103F8A26800D883A880F883A9009883A980B883A008D9680180B883A1009883A0E
:2018F800008EE8C01009883A102B883A0082D740800D883A880F883A1009883A180B883AC1
:2019000000825080100D883A180F883A9009883A980B883A008E5900AA000C04A2000005A5
:20190800000D883A01D009341009883A180B883AA5C00044B53FD91E100D883A180F883AC6
:201910001009883A180B883A0081C5C0100D883A180F883A8009883A880B883A1027883A90
:201918001825883A008E49C010000816980D883A900F883A8009883A880B883A008E338042
:20192000103F5A1EAD40004CA83F5826BD3FFFC3B8BFFFC41007883A01400E44D980071767
:201928000000050618FFFFC4118247261D000003102F883A10BFFFC4A1003FCC2100201CFE
:20193000213FE004217FF726A200004412000005003F4606D9000B172000C826D980031792
:2019380000C000441980F90ED8800617D8C00A17157FFFC41D41F3161D6BC83AD9C00617BF
:201940003802AA16DD000817D8800617D8C0081701400044E009883A1887883AD8C008151F
:20194800B0AD883A0088F2001023883AA00008260580070EA005883AB500B916D9000817A6
:20195000A0A9C83AB0ADC83A2089C83AD9000815D9800A170181810ED9C00B173800B326D5
:20195800A800B226880B883AA80D883AE009883A00891E80D9800917100B883AE009883A50
:201960001023883A0088F5C01021883AD8800A17D9400917E009883A1545C83AD8800A1512
:201968000088B940D8C00A1718009F1E05C00044E009883AB80B883A0088F200D9000D17A0
:20197000102B883A2000CE26200D883A100B883AE009883A00891E80D9800317102B883A38
:20197800B981810E0027883AA880041705C00804108001041085883A1085883AA885883A57
:20198000110000170088E080B885C83A1585883A108007CC1000B32600C008041887C83AE3
:201988000100010420C2CD0E00C007041885C83AD8C00817A0A9883AB0AD883A1887883AD0
:20199000D8C00815D98008170180040E800B883AE009883A008932801021883A0580050EB9
:20199800A80B883AB00D883AE009883A00893280102B883AD9C00E173801211ED9800617AC
:2019A0000181380ED8C00B171800AB1EDC800717DCC006179029883A000002060088BBC00B
:2019A8001021883AA80B883A8009883A008591C010800C0490800005948000449507C83AEB
:2019B000000F883A01800284800B883AE009883A1CFFF2161011883AD88006170082370E05
:2019B800D90007170025883A20AF883A01800044800B883AE009883ADA00171500893280A2
:2019C000A80B883A1009883AD880091500894700DA0017170081800EB93FFFC3B8BFFFC466
:2019C8001007883A01800E44D9C007170000050618FFFFC411C1232619000003102F883A7F
:2019D00010BFFFC421403FCC2940201C297FE00429BFF7262100004411000005A80B883AD3
:2019D800E009883A0088B940883EA0269000042694400326900B883AE009883A0088B940F7
:2019E000880B883AE009883A0088B940003E970601800044D9800E15003D9606D8800817FA
:2019E800D8C00517D8000D1510C5C83A00C9C83AD8800815D9000A15003D970605ADC83A94
:2019F000DD800815002D883A003D8E06D90005170082D740100D883A180F883AA009883ADC
:2019F800880B883A008E3380103D7126D9C0051739FFFFC4D9C00515003D6D06DD400A1704
:201A0000DD0008170023883A003F480610E3C83A9448983A003D3206D8000E15003D75068D
:201A0800B005883A003F4506DC000915D9800A17D9400917E009883A00891E801021883A4B
:201A1000003F5A0601C00044D9C00B15D88022170081280E100D883A1021883AD8800C15C6
:201A1800D8800615003D8806D880061700BE9B1610010F1E880B883A000D883A01D0053420
:201A20008009883A00825080900D883A980F883A1009883A180B883A008E3C00002B883ACA
:201A28000023883A1000BF16D9802217DDC00717018C303AD9800515A80B883AE009883AFD
:201A30000088B940883E4926003FAD06D9C011173801BC2610810CC4DD400A17DD00081777
:201A3800003F0A0600800704D9000817A0A9883AB0AD883A2089883AD9000815003F51069B
:201A4000D8C00317B8C1FC0E0027883AB805883A003F3E06880B883AE009883A000F883A95
